:020000040800F2
:10000000002800206D100008D1060008D70600085F
:10001000DD060008E3060008E9060008000000000D
:10002000000000000000000000000000EF060008D3
:10003000FB0600080000000007070008130700087F
:10004000B5100008B5100008B5100008B51000087C
:10005000B5100008B5100008B5100008B51000086C
:10006000B5100008B5100008B5100008B51000085C
:10007000B5100008B5100008B5100008B51000084C
:10008000B5100008B5100008B5100008B51000083C
:10009000B5100008B5100008B5100008B51000082C
:1000A000B5100008B5100008B5100008B51000081C
:1000B000B5100008B510000800000000B5100008D9
:1000C000B51000080000000000000000B510000896
:1000D00000000000B5100008B51000080000000086
:1000E000B5100008B5100008B510000800000000A9
:1000F0000000000000000000000000000000000000
:0C01000000000000000000005FF808F1A3
:10010C0010B5054C237833B9044B13B10448AFF345
:10011C0000800123237010BD0C00002000000000A3
:10012C00C01E000808B5034B1BB103490348AFF3CD
:10013C00008008BD0000000010000020C01E000858
:10014C0080B582B000AF00F0B1FF00F0F1F900F023
:10015C002BFA00F0E5FA00F0EFFA00F0F9FA0023C0
:10016C007B6000233B607B6801337B603B68132B17
:10017C0000F2D98101A252F823F000BFD901000886
:10018C00270200085D0200087B02000899020008A3
:10019C00B7020008D5020008170300083503000851
:1001AC005303000871030008BF030008DD030008B7
:1001BC00FB0300081904000835040008510400086A
:1001CC0091040008AD040008C90400087B68012BE9
:1001DC0040F08281032000F0D9FA092000F0D6FA11
:1001EC00042000F0D3FA0A2000F0D0FA012000F02D
:1001FC003BFB072000F038FB052000F035FB0B2003
:10020C0000F032FB052000F09DFB092000F060FDA2
:10021C0000237B6001233B605EE17B68012B40F097
:10022C005D81032000F0B2FA092000F0AFFA04203F
:10023C0000F0ACFA0A2000F0A9FA042000F082FBCE
:10024C00082000F045FD00237B6002233B6045E164
:10025C007B68012B40F04481032000F073FB0720E6
:10026C0000F036FD00237B6003233B6038E17B68A4
:10027C00012B40F03781022000F064FB062000F0D7
:10028C0027FD00237B6004233B602BE17B68012B63
:10029C0040F02A81012000F055FB052000F018FDEC
:1002AC0000237B6005233B601EE17B68012B40F043
:1002BC001D81002000F046FB042000F009FD002306
:1002CC007B6006233B6011E17B68012B40F01081C1
:1002DC00022000F05BFA042000F058FA082000F02D
:1002EC0055FA0A2000F052FA032000F0BDFA09205A
:1002FC0000F0BAFA032000F025FB032000F0E8FC24
:10030C0000237B6007233B60F2E07B68012B40F00D
:10031C00F180022000F016FB022000F0D9FC002333
:10032C007B6008233B60E5E07B68012B40F0E480B8
:10033C00012000F007FB012000F0CAFC00237B60C9
:10034C0009233B60D8E07B68012B40F0D78000206C
:10035C0000F0F8FA002000F0BBFC00237B600A23BD
:10036C003B60CBE07B68012B40F0CA80012000F0A1
:10037C000DFA072000F00AFA062000F007FA0C200C
:10038C0000F004FA022000F06FFA042000F06CFA7E
:10039C00082000F069FA0A2000F066FA092000F043
:1003AC00D1FA052000F094FC00237B600B233B600A
:1003BC00A6E07B68012B40F0A580082000F0C2FA73
:1003CC00042000F085FC00237B600C233B6099E04B
:1003DC007B68012B40F09880072000F0B3FA0320D3
:1003EC0000F076FC00237B600D233B608CE07B6887
:1003FC00012B40F08B80062000F0A4FA022000F0C4
:10040C0067FC00237B600E233B607FE07B68012B45
:10041C007ED1052000F096FA012000F059FC002353
:10042C007B600F233B6073E07B68012B72D104204F
:10043C0000F088FA002000F04BFC00237B601023B6
:10044C003B6067E07B68012B66D1012000F09EF9D0
:10045C00072000F09BF9052000F098F90B2000F024
:10046C0095F9062000F000FA0C2000F0FDF90320AD
:10047C0000F068FA032000F02BFC00237B601123B2
:10048C003B6049E07B68012B48D1022000F05AFA0E
:10049C00022000F01DFC00237B6012233B603DE03A
:1004AC007B68012B3CD1012000F04CFA012000F0BC
:1004BC000FFC00237B6013233B6031E07B68012B36
:1004CC0030D1002000F03EFA002000F001FC0023A7
:1004DC007B6000233B6025E000BF24E000BF22E0EE
:1004EC0000BF20E000BF1EE000BF1CE000BF1AE010
:1004FC0000BF18E000BF16E000BF14E000BF12E020
:10050C0000BF10E000BF0EE000BF0CE000BF0AE02F
:10051C0000BF08E000BF06E000BF04E000BF02E03F
:10052C0000BF00E000BF4FF47A7000F021FE1AE625
:10053C0080B590B000AF07F11803282200211846AF
:10054C0001F0B0FC3B1D00221A605A609A60DA6020
:10055C001A610223BB610123BB621023FB620023DF
:10056C007B6307F11803184601F09CF80346002B37
:10057C0001D000F06FF80F237B600023BB600023D9
:10058C00FB6000233B6100237B613B1D002118466F
:10059C0001F008FB0346002B01D000F05BF800BF14
:1005AC004037BD4680BD000080B586B000AF07F176
:1005BC00080300221A605A609A60DA60224B9B6929
:1005CC00214A43F0040393611F4B9B6903F004031E
:1005DC007B607B681C4B9B691B4A43F0080393614F
:1005EC00194B9B6903F008033B603B6800224FF6F4
:1005FC00C071164801F03EF800224FF6FF71144806
:10060C0001F038F84FF6C073BB600123FB60002388
:10061C003B6102237B6107F1080319460B4800F08C
:10062C00AFFE4FF6FF73BB600123FB6000233B6101
:10063C0002237B6107F108031946054800F0A0FE70
:10064C0000BF1837BD4680BD0010024000080140B5
:10065C00000C014080B400AF72B600BFFEE7000092
:10066C0080B485B000AF154B9B69144A43F001036D
:10067C009361124B9B6903F00103BB60BB680F4B8A
:10068C00DB690E4A43F08053D3610C4BDB6903F0FA
:10069C0080537B607B680A4B5B68FB60FB6823F0D4
:1006AC00E063FB60FB6843F08063FB60044AFB681B
:1006BC00536000BF1437BD4680BC70470010024029
:1006CC000000014080B400AFFEE780B400AFFEE74D
:1006DC0080B400AFFEE780B400AFFEE780B400AF9B
:1006EC00FEE780B400AF00BFBD4680BC704780B44D
:1006FC0000AF00BFBD4680BC704780B400AF00BFE8
:10070C00BD4680BC704780B500AF00F015FD00BF42
:10071C0080BD80B400AF00BFBD4680BC70470000F8
:10072C0080B500AF01224FF6FF71024800F0A2FF26
:10073C0000BF80BD0008014080B500AF00224FF61D
:10074C00FF71024800F096FF00BF80BD000C014015
:10075C0080B500AF01224FF480510B4800F08AFFA6
:10076C0001224FF40051084800F084FF01224FF49D
:10077C008041054800F07EFF01224FF40041024801
:10078C0000F078FF00BF80BD000C014080B582B046
:10079C0000AF78607B680C2B05D101224FF400610F
:1007AC00304800F067FF7B68012B04D10122012146
:1007BC002C4800F05FFF7B68022B04D10122022140
:1007CC00284800F057FF7B68032B04D10122042139
:1007DC00244800F04FFF7B68042B04D10122082130
:1007EC00204800F047FF7B68052B04D10122102123
:1007FC001C4800F03FFF7B68062B04D1012220210E
:10080C00184800F037FF7B68072B04D101224021E8
:10081C00144800F02FFF7B68082B04D101228021A3
:10082C00104800F027FF7B68092B05D101224FF4FB
:10083C0080710C4800F01EFF7B680A2B05D1012249
:10084C004FF40071074800F015FF7B680B2B05D1A6
:10085C0001224FF48061034800F00CFF00BF083701
:10086C00BD4680BD000C014080B582B000AF786001
:10087C007B680C2B05D100224FF40061304800F04E
:10088C00F9FE7B68012B04D1002201212C4800F0D9
:10089C00F1FE7B68022B04D100220221284800F0D3
:1008AC00E9FE7B68032B04D100220421244800F0CC
:1008BC00E1FE7B68042B04D100220821204800F0C3
:1008CC00D9FE7B68052B04D1002210211C4800F0B6
:1008DC00D1FE7B68062B04D100222021184800F0A1
:1008EC00C9FE7B68072B04D100224021144800F07C
:1008FC00C1FE7B68082B04D100228021104800F037
:10090C00B9FE7B68092B05D100224FF480710C488D
:10091C0000F0B0FE7B680A2B05D100224FF4007169
:10092C00074800F0A7FE7B680B2B05D100224FF483
:10093C008061034800F09EFE00BF0837BD4680BDB5
:10094C00000C014080B582B000AF78607B68002B52
:10095C0028D101224FF40051D34800F08BFE002225
:10096C008021D14800F086FE00224FF48071CE48E1
:10097C0000F080FE00224FF40071CB4800F07AFEAC
:10098C0000224FF48061C84800F074FE00224FF43E
:10099C000061C54800F06EFE00224FF48051C24841
:1009AC0000F068FE7B68012B28D101224FF4005126
:1009BC00BD4800F05FFE01228021BB4800F05AFECA
:1009CC0000224FF48071B84800F054FE00224FF41E
:1009DC000071B54800F04EFE01224FF48061B24820
:1009EC0000F048FE01224FF40061AF4800F042FED7
:1009FC0001224FF48051AC4800F03CFE7B68022B86
:100A0C0028D100224FF40051A74800F033FE0022F9
:100A1C008021A54800F02EFE00224FF48071A248E0
:100A2C0000F028FE01224FF400719F4800F022FED6
:100A3C0000224FF480619C4800F01CFE00224FF411
:100A4C000061994800F016FE01224FF4805196483F
:100A5C0000F010FE7B68032B28D100224FF40051CC
:100A6C00914800F007FE002280218F4800F002FE22
:100A7C0000224FF480718C4800F0FCFD00224FF4F2
:100A8C000071894800F0F6FD00224FF48061864821
:100A9C0000F0F0FD01224FF40061834800F0EAFD04
:100AAC0001224FF48051804800F0E4FD7B68042B58
:100ABC0028D100224FF400517B4800F0DBFD0122CD
:100ACC008021794800F0D6FD00224FF480717648E1
:100ADC0000F0D0FD00224FF40071734800F0CAFD05
:100AEC0001224FF48061704800F0C4FD01224FF4E4
:100AFC0000616D4800F0BEFD00224FF480516A4841
:100B0C0000F0B8FD7B68052B28D100224FF4005172
:100B1C00654800F0AFFD00228021634800F0AAFD7B
:100B2C0001224FF48071604800F0A4FD00224FF4C4
:100B3C0000715D4800F09EFD00224FF480615A4820
:100B4C0000F098FD01224FF40061574800F092FD2F
:100B5C0000224FF48051544800F08CFD7B68062B2A
:100B6C0028D100224FF400514F4800F083FD0022A1
:100B7C0080214D4800F07EFD01224FF480714A48DF
:100B8C0000F078FD00224FF40071474800F072FD30
:100B9C0000224FF48061444800F06CFD00224FF4B9
:100BAC000061414800F066FD00224FF480513E4840
:100BBC0000F060FD7B68072B28D101224FF4005117
:100BCC00394800F057FD00228021374800F052FDD3
:100BDC0000224FF48071344800F04CFD00224FF499
:100BEC000071314800F046FD01224FF480612E481F
:100BFC0000F040FD01224FF400612B4800F03AFD5B
:100C0C0001224FF48051284800F034FD7B68082BFA
:100C1C0028D100224FF40051234800F02BFD002274
:100C2C008021214800F026FD00224FF480711E48DF
:100C3C0000F020FD00224FF400711B4800F01AFD5B
:100C4C0000224FF48061184800F014FD00224FF48C
:100C5C000061154800F00EFD00224FF4805112483F
:100C6C0000F008FD7B68092B2CD100224FF40051B9
:100C7C000D4800F0FFFC002280210B4800F0FAFC2C
:100C8C0000224FF48071084800F0F4FC00224FF46D
:100C9C000071054800F0EEFC00224FF48061024820
:100CAC0000F0E8FC02E000BF0008014001224FF414
:100CBC000061064800F0DEFC00224FF4805103482E
:100CCC0000F0D8FC00BF0837BD4680BD00080140CD
:100CDC0080B582B000AF78607B68002B28D10122F0
:100CEC004FF40041D34800F0C5FC00224021D2480B
:100CFC0000F0C0FC00224FF48041CF4800F0BAFC59
:100D0C0000224FF40041CC4800F0B4FC00224FF418
:100D1C008051C84800F0AEFC00224FF40051C54889
:100D2C0000F0A8FC00224FF48041C24800F0A2FC65
:100D3C007B68012B28D101224FF40041BD4800F003
:100D4C0099FC01224021BC4800F094FC00224FF495
:100D5C008041B94800F08EFC00224FF40041B648A7
:100D6C0000F088FC01224FF48051B24800F082FC64
:100D7C0001224FF40051AF4800F07CFC01224FF4EB
:100D8C008041AC4800F076FC7B68022B28D1002215
:100D9C004FF40041A74800F06DFC00224021A6480A
:100DAC0000F068FC00224FF48041A34800F062FC84
:100DBC0001224FF40041A04800F05CFC00224FF4EB
:100DCC0080519C4800F056FC00224FF40051994889
:100DDC0000F050FC01224FF48041964800F04AFC90
:100DEC007B68032B28D100224FF40041914800F07E
:100DFC0041FC00224021904800F03CFC00224FF4C2
:100E0C0080418D4800F036FC00224FF400418A48A6
:100E1C0000F030FC00224FF48051864800F02AFC90
:100E2C0001224FF40051834800F024FC01224FF4BE
:100E3C008041804800F01EFC7B68042B28D10022E6
:100E4C004FF400417B4800F015FC012240217A4808
:100E5C0000F010FC00224FF48041774800F00AFCAF
:100E6C0000224FF40041744800F004FC01224FF4BE
:100E7C008051704800F0FEFB01224FF400516D4888
:100E8C0000F0F8FB00224FF480416A4800F0F2FBBE
:100E9C007B68052B28D100224FF40041654800F0F7
:100EAC00E9FB00224021644800F0E4FB01224FF4EE
:100EBC008041614800F0DEFB00224FF400415E48A7
:100ECC0000F0D8FB00224FF480515A4800F0D2FBBE
:100EDC0001224FF40051574800F0CCFB00224FF494
:100EEC008041544800F0C6FB7B68062B28D10022B9
:100EFC004FF400414F4800F0BDFB002240214E480A
:100F0C0000F0B8FB01224FF480414B4800F0B2FBDB
:100F1C0000224FF40041484800F0ACFB00224FF493
:100F2C008051444800F0A6FB00224FF40051414888
:100F3C0000F0A0FB00224FF480413E4800F09AFBE9
:100F4C007B68072B28D101224FF40041394800F06F
:100F5C0091FB00224021384800F08CFB00224FF41A
:100F6C008041354800F086FB00224FF400413248A6
:100F7C0000F080FB01224FF480512E4800F07AFBE8
:100F8C0001224FF400512B4800F074FB01224FF466
:100F9C008041284800F06EFB7B68082B28D100228A
:100FAC004FF40041234800F065FB00224021224809
:100FBC0000F060FB00224FF480411F4800F05AFB08
:100FCC0000224FF400411C4800F054FB00224FF467
:100FDC008051184800F04EFB00224FF40051154888
:100FEC0000F048FB00224FF48041124800F042FB15
:100FFC007B68092B2ED100224FF400410D4800F0E4
:10100C0039FB002240210C4800F034FB00224FF445
:10101C008041094800F02EFB00224FF400410648A5
:10102C0000F028FB00224FF48051024800F022FB14
:10103C0004E000BF000C01400008014001224FF405
:10104C000051064800F016FB00224FF48041034883
:10105C0000F010FB00BF0837BD4680BD000C0140FE
:10106C00FFF757FB0B480C490C4A002302E0D458FD
:10107C00C4500433C4188C42F9D3094A094C0023D8
:10108C0001E013600432A242FBD300F0E7FEFFF74D
:10109C0057F87047000000200C000020041F0008C7
:1010AC000C0000202C000020FEE7000080B500AFF3
:1010BC00084B1B68074A43F010031360032000F031
:1010CC002BF90F2000F008F8FFF7CAFA0023184696
:1010DC0080BD00BF0020024080B582B000AF7860B8
:1010EC00124B1A68124B1B7819464FF47A73B3FBE8
:1010FC00F1F3B2FBF3F3184600F035F90346002B7D
:10110C0001D001230EE07B680F2B0AD800227968EE
:10111C004FF0FF3000F00BF9064A7B681360002398
:10112C0000E0012318460837BD4680BD00000020B2
:10113C00080000200400002080B400AF054B1B7891
:10114C001A46054B1B681344034A136000BFBD4687
:10115C0080BC7047080000202800002080B400AF3D
:10116C00024B1B681846BD4680BC70472800002007
:10117C0080B584B000AF7860FFF7F0FFB8607B6893
:10118C00FB60FB68B3F1FF3F05D00A4B1B781A4696
:10119C00FB681344FB6000BFFFF7E0FF0246BB682F
:1011AC00D31AFA689A42F7D800BF00BF1037BD4671
:1011BC0080BD00BF0800002080B485B000AF78600F
:1011CC007B6803F00703FB600C4BDB68BB60BA6801
:1011DC004FF6FF031340BB60FB681A02BB68134356
:1011EC0043F0BF6343F40033BB60044ABB68D36075
:1011FC0000BF1437BD4680BC704700BF00ED00E057
:10120C0080B400AF044BDB681B0A03F007031846DD
:10121C00BD4680BC704700BF00ED00E080B483B0D9
:10122C0000AF03463960FB7197F90730002B0ADBDE
:10123C003B68DAB20C4997F907301201D2B20B4471
:10124C0083F800230AE03B68DAB20849FB7903F023
:10125C000F03043B1201D2B20B441A7600BF0C37B9
:10126C00BD4680BC704700BF00E100E000ED00E02F
:10127C0080B489B000AFF860B9607A60FB6803F0A5
:10128C000703FB61FB69C3F10703042B28BF04238D
:10129C00BB61FB690433062B02D9FB69033B00E0FD
:1012AC0000237B614FF0FF32BB6902FA03F3DA4390
:1012BC00BB681A407B699A404FF0FF317B6901FA99
:1012CC0003F3D9437B680B40134318462437BD46C0
:1012DC0080BC704780B582B000AF78607B68013B02
:1012EC00B3F1807F01D301230FE00A4A7B68013BF5
:1012FC0053600F214FF0FF30FFF790FF054B00229A
:10130C009A60044B07221A60002318460837BD4622
:10131C0080BD00BF10E000E080B582B000AF786007
:10132C007868FFF749FF00BF0837BD4680BD80B520
:10133C0086B000AF0346B9607A60FB7300237B6113
:10134C00FFF75EFF78617A68B9687869FFF790FFFC
:10135C00024697F90F3011461846FFF75FFF00BFA2
:10136C001837BD4680BD80B582B000AF7860786814
:10137C00FFF7B0FF034618460837BD4680BD000096
:10138C0080B48BB000AF7860396000237B6200239F
:10139C003B6248E101227B6A02FA03F3FB613B6882
:1013AC001B68FA691340BB61BA69FB699A4240F049
:1013BC0037813B685B68A34A93425ED0A14A934253
:1013CC0075D8A14A934258D09F4A93426FD89F4AEE
:1013DC00934252D09D4A934269D89D4A93424CD035
:1013EC009B4A934263D89B4A934246D0994A934274
:1013FC005DD8122B2AD8122B59D801A252F823F0FF
:10140C00871400086114000873140008B514000850
:10141C00BB140008BB140008BB140008BB14000864
:10142C00BB140008BB140008BB140008BB14000854
:10143C00BB140008BB140008BB140008BB14000844
:10144C00BB140008691400087D140008824A9342FA
:10145C0013D02CE03B68DB683B6229E03B68DB681F
:10146C0004333B6224E03B68DB6808333B621FE0DB
:10147C003B68DB680C333B621AE03B689B68002BD3
:10148C0002D104233B6213E03B689B68012B05D11E
:10149C0008233B627B68FA691A6109E008233B6206
:1014AC007B68FA695A6103E000233B6200E000BFED
:1014BC00BB69FF2B01D87B6801E07B6804337B613F
:1014CC00BB69FF2B02D87B6A9B0002E07B6A083B5E
:1014DC009B003B617B691A680F213B6901FA03F39E
:1014EC00DB431A40396A3B6901FA03F31A437B69FF
:1014FC001A603B685B6803F08053002B00F090800F
:10150C00564B9B69554A43F001039361534B9B69BE
:10151C0003F00103BB60BB68514A7B6A9B08023332
:10152C0052F82330FB607B6A03F003039B000F220D
:10153C0002FA03F3DB43FA681340FB607B68494A09
:10154C0093420DD07B68484A934207D07B68474A48
:10155C00934201D1022304E0032302E0012300E0C3
:10156C0000237A6A02F0030292009340FA68134354
:10157C00FB603B497B6A9B080233FA6841F82320E5
:10158C003B685B6803F48013002B06D0384B9A68D9
:10159C003749BB6913438B6006E0354B9A68BB69CE
:1015AC00DB43334913408B603B685B6803F40013E7
:1015BC00002B06D02E4BDA682D49BB691343CB6048
:1015CC0006E02B4BDA68BB69DB4329491340CB603F
:1015DC003B685B6803F40033002B06D0244B5A683D
:1015EC002349BB6913434B6006E0214B5A68BB6926
:1015FC00DB431F4913404B603B685B6803F480334B
:10160C00002B06D01A4B1A681949BB6913430B609F
:10161C0006E0174B1A68BB69DB43154913400B6096
:10162C007B6A01337B623B681A687B6A22FA03F39C
:10163C00002B7FF4AFAE00BF00BF2C37BD4680BC83
:10164C00704700BF00003210000031100000221063
:10165C0000002110000012100000111000100240B8
:10166C000000014000080140000C01400010014046
:10167C000004014080B483B000AF78600B467B80DF
:10168C0013467B707B78002B03D07A887B681A61B9
:10169C0003E07B881A047B681A6100BF0C37BD46D7
:1016AC0080BC704780B586B000AF78607B68002B3B
:1016BC0001D101236CE27B681B6803F00103002B52
:1016CC0000F08780924B5B6803F00C03042B0CD06A
:1016DC008F4B5B6803F00C03082B12D18C4B5B68AF
:1016EC0003F48033B3F5803F0BD1894B1B6803F4B3
:1016FC000033002B6CD07B685B68002B68D1012316
:10170C0046E27B685B68B3F5803F06D1804B1B6873
:10171C007F4A43F4803313602EE07B685B68002BB8
:10172C000CD17B4B1B687A4A23F480331360784BC3
:10173C001B68774A23F4802313601DE07B685B6889
:10174C00B3F5A02F0CD1724B1B68714A43F4802364
:10175C0013606F4B1B686E4A43F4803313600BE0CD
:10176C006B4B1B686A4A23F480331360684B1B680D
:10177C00674A23F4802313607B685B68002B13D0CB
:10178C00FFF7ECFC386108E0FFF7E8FC02463B6928
:10179C00D31A642B01D90323FAE15D4B1B6803F4C4
:1017AC000033002BF0D014E0FFF7D8FC386108E0D0
:1017BC00FFF7D4FC02463B69D31A642B01D90323EF
:1017CC00E6E1534B1B6803F40033002BF0D100E02F
:1017DC0000BF7B681B6803F00203002B63D04C4BEB
:1017EC005B6803F00C03002B0BD0494B5B6803F0D8
:1017FC000C03082B1CD1464B5B6803F48033002B85
:10180C0016D1434B1B6803F00203002B05D07B68F9
:10181C001B69012B01D00123BAE13D4B1B6823F05E
:10182C00F8027B685B69DB00394913430B603AE0D3
:10183C007B681B69002B20D0364B01221A60FFF706
:10184C008DFC386108E0FFF789FC02463B69D31A2E
:10185C00022B01D903239BE12D4B1B6803F00203E0
:10186C00002BF0D02A4B1B6823F0F8027B685B69D5
:10187C00DB00274913430B6015E0264B00221A604E
:10188C00FFF76CFC386108E0FFF768FC02463B6927
:10189C00D31A022B01D903237AE11D4B1B6803F0E9
:1018AC000203002BF0D17B681B6803F00803002BAC
:1018BC003AD07B689B69002B19D0174B01221A6018
:1018CC00FFF74CFC386108E0FFF748FC02463B6927
:1018DC00D31A022B01D903235AE10D4B5B6A03F097
:1018EC000203002BF0D0012000F09AFA1CE00A4B06
:1018FC0000221A60FFF732FC38610FE0FFF72EFC74
:10190C0002463B69D31A022B08D9032340E100BFDE
:10191C000010024000004242800442429E4B5B6A2F
:10192C0003F00203002BE9D17B681B6803F004036E
:10193C00002B00F0A6800023FB75974BDB6903F0AE
:10194C008053002B0DD1944BDB69934A43F08053A9
:10195C00D361914BDB6903F08053BB60BB680123FF
:10196C00FB758E4B1B6803F48073002B18D18B4BCB
:10197C001B688A4A43F480731360FFF7EFFB3861EE
:10198C0008E0FFF7EBFB02463B69D31A642B01D945
:10199C000323FDE0814B1B6803F48073002BF0D014
:1019AC007B68DB68012B06D17B4B1B6A7A4A43F0C0
:1019BC00010313622DE07B68DB68002B0CD1764BA6
:1019CC001B6A754A23F001031362734B1B6A724A3C
:1019DC0023F0040313621CE07B68DB68052B0CD13D
:1019EC006D4B1B6A6C4A43F0040313626A4B1B6A0F
:1019FC00694A43F0010313620BE0674B1B6A664AAA
:101A0C0023F001031362644B1B6A634A23F0040343
:101A1C0013627B68DB68002B15D0FFF79FFB3861E6
:101A2C000AE0FFF79BFB02463B69D31A41F288326E
:101A3C00934201D90323ABE0574B1B6A03F002031B
:101A4C00002BEED014E0FFF789FB38610AE0FFF7BA
:101A5C0085FB02463B69D31A41F28832934201D985
:101A6C00032395E04C4B1B6A03F00203002BEED1D1
:101A7C00FB7D012B05D1484BDB69474A23F0805392
:101A8C00D3617B68DB69002B00F08180424B5B6883
:101A9C0003F00C03082B61D07B68DB69022B46D169
:101AAC003F4B00221A60FFF759FB386108E0FFF743
:101ABC0055FB02463B69D31A022B01D9032367E07D
:101ACC00354B1B6803F00073002BF0D17B681B6A4D
:101ADC00B3F5803F08D1304B5B6823F400327B6850
:101AEC009B682D4913434B602B4B5B6823F474129A
:101AFC007B68196A7B685B6A0B43274913434B600D
:101B0C00274B01221A60FFF729FB386108E0FFF729
:101B1C0025FB02463B69D31A022B01D9032337E07C
:101B2C001D4B1B6803F00073002BF0D02FE01C4BF7
:101B3C0000221A60FFF712FB386108E0FFF70EFB7A
:101B4C0002463B69D31A022B01D9032320E0124B26
:101B5C001B6803F00073002BF0D118E07B68DB6985
:101B6C00012B01D1012313E00B4B5B68FB60FB687D
:101B7C0003F480327B681B6A9A4206D1FB6803F43B
:101B8C0070127B685B6A9A4201D0012300E000234B
:101B9C0018461837BD4680BD00100240007000404A
:101BAC006000424280B584B000AF786039607B68D9
:101BBC00002B01D10123D0E06A4B1B6803F0070313
:101BCC003A689A4210D9674B1B6823F007026549A3
:101BDC003B6813430B60634B1B6803F007033A68C5
:101BEC009A4201D00123B8E07B681B6803F0020322
:101BFC00002B20D07B681B6803F00403002B05D05E
:101C0C00594B5B68584A43F4E06353607B681B682C
:101C1C0003F00803002B05D0534B5B68524A43F486
:101C2C0060535360504B5B6823F0F0027B689B68F9
:101C3C004D4913434B607B681B6803F00103002B79
:101C4C0040D07B685B68012B07D1474B1B6803F4C2
:101C5C000033002B15D101237FE07B685B68022BDE
:101C6C0007D1414B1B6803F00073002B09D10123F2
:101C7C0073E03D4B1B6803F00203002B01D10123E1
:101C8C006BE0394B5B6823F003027B685B68364979
:101C9C0013434B60FFF762FAF8600AE0FFF75EFA55
:101CAC000246FB68D31A41F28832934201D90323CE
:101CBC0053E02D4B5B6803F00C027B685B689B0068
:101CCC009A42EBD1274B1B6803F007033A689A4200
:101CDC0010D2244B1B6823F0070222493B681343A4
:101CEC000B60204B1B6803F007033A689A4201D043
:101CFC00012332E07B681B6803F00403002B08D03F
:101D0C00194B5B6823F4E0627B68DB68164913436C
:101D1C004B607B681B6803F00803002B09D0124B47
:101D2C005B6823F460527B681B69DB000E4913432C
:101D3C004B6000F021F802460B4B5B681B0903F06B
:101D4C000F030A49CB5C22FA03F3094A1360094BCF
:101D5C001B681846FFF7C0F9002318461037BD461C
:101D6C0080BD00BF0020024000100240D81E0008B9
:101D7C00000000200400002080B487B000AF0023D6
:101D8C00FB600023BB6000237B6100237B6000238E
:101D9C003B611E4B5B68FB60FB6803F00C03042B80
:101DAC0002D0082B03D027E0194B3B6127E0FB68DE
:101DBC009B0C03F00F03174AD35C7B60FB6803F4A6
:101DCC008033002B10D0114B5B685B0C03F00103CC
:101DDC00114AD35CBB607B680D4A02FB03F2BB6803
:101DEC00B2FBF3F37B6104E07B680C4A02FB03F368
:101DFC007B617B693B6102E0054B3B6100BF3B694A
:101E0C0018461C37BD4680BC704700BF001002400E
:101E1C0000127A00E81E0008F81E000800093D00B8
:101E2C0080B485B000AF78600A4B1B680A4AA2FBED
:101E3C0003235B0A7A6802FB03F3FB6000BFFB68B9
:101E4C005A1EFA60002BF9D100BF00BF1437BD46F3
:101E5C0080BC704700000020D34D621070B5002686
:101E6C000C4D0D4C641BA410A64209D100F022F8B5
:101E7C0000260A4D0A4C641BA410A64205D170BD65
:101E8C0055F8043B98470136EEE755F8043B984764
:101E9C000136F2E7FC1E0008FC1E0008FC1E0008C0
:101EAC00001F000803460244934200D1704703F818
:101EBC00011BF9E7F8B500BFF8BC08BC9E4670479B
:0C1ECC00F8B500BFF8BC08BC9E4670478B
:101ED80000000000000000000102030406070809D2
:101EE80002030405060708090A0B0C0D0E0F101053
:041EF80001020000E3
:041EFC0031010008A8
:041F00000D010008C7
:0C1F040000127A00100000000100000034
:040000050800106D72
:00000001FF
